:020000021000EC
:10C0000000800020D5EB01001DEC01001FEC0100B9
:10C010000000000000000000000000000000000020
:10C0200000000000000000000000000021EC010002
:10C03000000000000000000023EC010025EC0100DE
:10C0400027EC010027EC010029D2010027EC0100B8
:10C0500027EC01000000000075CB010027EC010077
:10C0600027EC010027EC010027EC010027EC010080
:10C0700027EC010027EC010027EC010027EC010070
:10C0800027EC010029C3010027EC010027EC010087
:10C0900009C4010027EC0100A1EB010027EC01001D
:10C0A00027EC010027EC0100000000000000000068
:10C0B0000000000000000000000000000000000080
:10C0C00010B5064C2378002B07D1054B002B02D06E
:10C0D000044800E000BF0123237010BD6C2800203D
:10C0E000000000006CEE010008B5084B002B03D0E7
:10C0F0000748084900E000BF07480368002B00D14B
:10C1000008BD064B002BFBD09847F9E70000000064
:10C110006CEE0100702800206C2800200000000058
:10C12000164B002B00D1144B9D46402292029A1AC6
:10C13000924600218B460F461348144A121A00F00B
:10C1400067F80F4B002B00D098470E4B002B00D008
:10C1500098470020002104000D000D48002802D05F
:10C160000C4800E000BF00F02DF82000290001F08D
:10C17000EFFD00F011F8C04600000800008000202C
:10C1800000000000000000006C280020642E002049
:10C190000000000000000000084B10B5041C002B3C
:10C1A00002D0002100E000BF054B1868836A002B15
:10C1B00000D09847201C00F033F8C0460000000073
:10C1C000A8EC01000E4B70B500251E1C0D4CE41AA6
:10C1D000A410A54204D0AB00F35898470135F8E706
:10C1E00002F054FD084B00251E1C084CE41AA41054
:10C1F000A54204D0AB00F35898470135F8E770BD6D
:10C20000642800206428002064280020682800207A
:10C21000031C8218934202D019700133FAE7704769
:10C22000FEE7C046BFF34F8F024A034BDA60BFF30D
:10C230004F8FFEE70400FA0500ED00E010B500297D
:10C240000DD00923002A01D1181C10BD541E224014
:10C25000FAD1826001608480C2600023F4E70E237B
:10C26000F2E7C046031C10B59C888068DA68121A91
:10C270000420944200D210BDDA68002014401A68ED
:10C280001155DA680132DA60F5E7C04610B5846806
:10C29000C268031C0520944209D098689A8802401D
:10C2A0001868825C00200A709A6801329A6010BD9A
:10C2B00080218023184A8902D1508022D221174B35
:10C2C000520289005A5040395A5001222F205A6098
:10C2D0000138C046C046C046C046C046C046C046FB
:10C2E000C046C046C046C046C046F1D19A60002351
:10C2F0000B4A2F2013600138C046C046C046C046D6
:10C30000C046C046C046C046C046C046C046C046FD
:10C31000F1D1044A1370704700E100E000100140C1
:10C3200088280020A8280020A021F0B50023474637
:10C330002C4A490080B453500431535004315350B7
:10C34000043153504C39535004315350264B1B6821
:10C35000002B37D02549002652582549254F0C6817
:10C36000141B00222402240A904602E0002D1AD059
:10C370002B1C1A68A24216D8A41AB6181A7CDD69BA
:10C38000002AF3D0424699691A745A693B68002B17
:10C390001BD0101C98470028E8D000210022FFF78E
:10C3A00041FF002DE4D1144B14491A780B789A42BE
:10C3B0000ED0134A9B009E5080218023114A4903CE
:10C3C0005B00D15004BC9046F0BD081C9047CDE7FF
:10C3D0000132D3B2022B01D00B70EAE700230B70BD
:10C3E000E7E7C046001001408C280020040500004B
:10C3F00088280020902800209C2800209D280020CC
:10C40000A028002000E100E0F0B55F4656464D460A
:10C410004446F0B4B44BB54A1B68B54989B00193A2
:10C4200009781378994200D1B1E10133DBB2022BD4
:10C4300000D100231370AF4A9B009B58AA4A99462B
:10C44000019B4B441B021B0A136001230493AA4B5C
:10C4500000241B689B46A94BD8461B781A1C0293E4
:10C46000A74B944607931B6803939F4B1B68069347
:10C47000A44B1B7805935B466646013EF2B2944698
:10C48000FF2A4FD06246D000039A9246504401786A
:10C490004578A942F0D04A005218877801314668A1
:10C4A000C9B27F1AB2467E1EB741D2007F425244C3
:10C4B00039401778022F0AD0032FEAD1002BE8D099
:10C4C0001C74DB69002BFBD145789846E1E7566880
:10C4D000002B25D09E421AD01F1C00E0171CFA69C1
:10C4E000002AD6D09642F9D1321C3D1CBE4200D162
:10C4F000EBE01768D269EA61002A06D013689A4611
:10C500005744176045784346C3E74578C1E7DE697D
:10C510001A1C002E00D1DDE0B046331C151CE8E7E4
:10C520000023B6E76946774A097D181C11706E4AE8
:10C5300006990393116041466F4A1160049A002ADC
:10C5400000D028E15B461B1A5A1E93410025DBB23E
:10C550000493079B00271B68039E0693624B1B688E
:10C560009C46654B1B689A46664B1B780593664B49
:10C57000019301239846029B013BDBB20293FF2B00
:10C5800000D18FE0069ADB0093469B44002D27D014
:10C590006968AB68281CED696246019C8A1A120220
:10C5A000120AA24250D8D3184246036047608760FF
:10C5B0000274C761002E56D03168341C994204D3EE
:10C5C0005FE01168994263D2141CE2695B1A002A89
:10C5D000F7D10360331CC261E0611E1C002DD7D16E
:10C5E0005B465A461B7852789A42C4D059464968ED
:10C5F0005A0089465946D2180133DBB20B7089784C
:10C60000D2004A4499424AD011785068331C01291B
:10C61000E3D1037C99464946331C0029DDD191685A
:10C620004160D36883601469C46052698261059A6D
:10C63000002AB1D04A46002142606246019C8A1A13
:10C640001202120AA242AED96246511A0902090A1E
:10C6500099420CD242465B1A0360476087600274BD
:10C66000C761002EA8D1031C82461E1CB6E74346B4
:10C670000760476087600374C761002EF3D0002312
:10C680003168CB1A3360031CC66182461E1CA5E7C5
:10C69000C91A11600360C261331CE0619DE75B460B
:10C6A0001D70B1E75246144B1A60039BB3422FD161
:10C6B000049B002B2CD10023124A137009B03CBC00
:10C6C00090469946A246AB46F0BDDE693A1C002E64
:10C6D00000D021E701250D4B9D6000230696013611
:10C6E0009846151C059604E7882800209C28002001
:10C6F0009D280020A02800208C28002094280020BD
:10C70000982800209E280020FEFF7F000010014096
:10C71000002E63D0484B49493568CC58484B494EA8
:10C720001B683078E21A1202120A0332904600287F
:10C7300061D04246AA4200D22A1CA820D218120276
:10C740003E49130AC0003C4D0B504A591B1B121B9B
:10C750001202120A1B0203321B0A9A42ABD94B592E
:10C760000B502F200138C046C046C046C046C046C8
:10C77000C046C046C046C046C046C046C046F1D1CD
:10C7800080218023304A89025B00D15093E7002347
:10C79000994604935BE6002500210024484646465E
:10C7A00013E01A6882421CD8DE68801A89181C605F
:10C7B000DF69002E07D0DD611D1C019A9E608A187A
:10C7C0001202120A5A603B1C3E1C002BE9D11F4B7F
:10C7D0001E600023039301330493BAE6FFF768FD5C
:10C7E00069E78146194903930E604946521A1A6057
:10C7F00001230493ADE68020D1274002BF00C85139
:10C80000403FC851C02280270F48BF0252008750C6
:10C81000076001272F200F600138C046C046C04680
:10C82000C046C046C046C046C046C046C046C046D8
:10C83000C046F1D137707CE70405000000100140CC
:10C8400088280020A828002000E100E08C28002093
:10C85000F8B54F464646C0B40326351C80460F1C2B
:10C86000141C994615400720002D03D00CBC90469F
:10C870009946F8BD002A44D0FFF71AFD4A46224BDC
:10C8800080201A60221C214B18321E70204B6260DF
:10C890001C607B00DB19DB00D218E260D318C022D9
:10C8A000636125706570A77025726572A772257423
:10C8B0006574A774C524FF21164B40031D60164BF9
:10C8C00052001D70154BA4001D70154B98501A593D
:10C8D0008A433F390A431A51A12218604046114940
:10C8E000D2008850C42080001C580F4A2240C02427
:10C8F000240222431A500D4B0020CA580C4B1A60D8
:10C90000B4E7034B1A60B1E7902800209428002078
:10C91000982800208C2800209C2800209D2800209A
:10C9200000E100E000100140FF00FFFF04050000EF
:10C930008828002030B5047885B0012C19D0022C4D
:10C9400034D0002C01D005B030BD254C254D201C25
:10C95000291CFFF79BFC002823D0A268E3689A42B9
:10C96000F1D1032302AA13701F4B101C1B689847B8
:10C97000E9E743681D4D1978281CFFF773FC002870
:10C980001ED1AA68EB689B1A012B21D0AA68EB681C
:10C990009B1AAA889342D6D80121154800F0AAFB19
:10C9A000D1E7281C012100F04BFBD6E702AB1C703D
:10C9B000C36802A8019303930B4B1B689847C2E717
:10C9C00002AB1C70084B03901B6802A89847DDE778
:10C9D00002AB1870044B02A81B689847D6E7C04604
:10C9E000B8280020AC280020B0280020C82800204B
:10C9F000B4280020F0B51E1C214B051C89B00C1C6E
:10CA00001A600720002906D08A881E480968FFF7A7
:10CA100015FC002801D009B0F0BDA168A2891A4810
:10CA2000FFF70CFC0028F6D16A46184B684692CBFB
:10CA300092C292CB92C212CB12C2AB6806932B79F0
:10CA400006775A1E934103756B790E22591E8B414E
:10CA50005B421A404275EB780D490293AB78039321
:10CA60002B7801936B78009300F062FA0028D2D102
:10CA700000F0C4FB0121074800F03CFBCBE7C046B7
:10CA8000B0280020C8280020B8280020ACEC010005
:10CA900035C90100B428002038B50A4C051CA1682E
:10CAA000A288E3685B1A9A4204D0201C291CFFF775
:10CAB000EDFB38BD0448012100F01CFB0028F4D038
:10CAC0000520F6E7C8280020B428002010B5041C73
:10CAD00006480121047000F0B3FA112800D010BDFF
:10CAE000211C0348FFF7BEFBF9E7C046D828002009
:10CAF000B8280020F0B5002820DBFF271B4B0322BD
:10CB00009C463B1C8408C026C0B20240D200934021
:10CB1000A4006444B600A5599D438B013B4093405B
:10CB2000191C2943A1511F2318401E3B8340C022DA
:10CB3000181C0E4B520098501860F0BDFF260C4A8E
:10CB400003249446321C0F23C0B20440E400A240E8
:10CB50000340083B9B089B006344DD6995438A01C1
:10CB60003240A240111C2943D961DCE700E100E01A
:10CB700000ED00E0F8B54F464646C0B4C74A002471
:10CB80001368012B00D1CBE0C54B1A68012A00D1F4
:10CB9000D4E0C44B1A68012A00D1DFE0C24B1A6806
:10CBA000012A00D1EAE0C14B00251A68012A00D110
:10CBB000F5E023070BD0E30700D506E1A30700D576
:10CBC00012E1630700D51DE1230700D5F1E0002C39
:10CBD00003DB0CBC90469946F8BD4023B44CE15CA5
:10CBE0004BB2013321D0C9B2C023081C984323188B
:10CBF00020331B785BB29B001E59002E15D0A0225B
:10CC0000D205944683009C44E0236246DB00D3585F
:10CC10000122C0278240BF023B4089091B0C1542FC
:10CC200000D106E1022B00D160E14123E15C4BB26F
:10CC3000013321D0C9B2C023081C984323182033E4
:10CC40001B785BB29B001E59002E15D0A022D20586
:10CC5000944683009C44E0236246DB00D3580122C3
:10CC6000C0278240BF023B4089091B0C154200D1FE
:10CC7000D8E0022B00D1FDE04223E15C4BB201334E
:10CC800021D0C9B2C023081C9843231820331B7835
:10CC90005BB29B001E59002E15D0A022D2059446EF
:10CCA00083009C44E0236246DB00D3580122C02766
:10CCB0008240BF023B4089091B0C154200D1D2E0E3
:10CCC000022B00D1FEE04323E15C4BB2013300D1E3
:10CCD0007FE7C9B2C023081C9843231820331B7870
:10CCE0005BB29B001E59002E00D172E7A0230124E5
:10CCF000DB059C46E023C027844082006244DB00C1
:10CD0000D358BF023B4089091B0C254200D197E054
:10CD1000022B00D05DE7032900D199E0B04758E726
:10CD2000C1216448890041580B4200D12CE75C4B7B
:10CD300014601A680134012A00D02AE7C1225D4933
:10CD40009200895802220A4200D122E7002119608C
:10CD5000544B14431A68012A00D01FE7C1225549D9
:10CD60009200895804220A4200D117E70021196075
:10CD70004D4B14431A68012A00D014E7C1224D49D3
:10CD80009200895808220A4200D10CE7002119605C
:10CD9000464B14431A680025012A00D009E71D609C
:10CDA00080231B061C43A022A223D205DB00D558FA
:10CDB000FFE6404A404BD058D1583D4BC004890350
:10CDC000C00E890FDB68984701E7A223394ADB00D0
:10CDD000D058D158364BC00489031B68C00E890F48
:10CDE0009847A30700D4ECE6344B324AD058D158C8
:10CDF0002F4BC00489035B68C00E890F98476307F7
:10CE000000D4E1E6A3232B4ADB00D058D158284BAD
:10CE1000C00489039B68C00E890F9847230700D47C
:10CE2000D5E6C6E7032B00D026E7032972D0B0472A
:10CE300022E7032B00D0F8E6032973D0B047F4E6CD
:10CE4000032B00D0C5E6032900D067E78027BF0287
:10CE5000E023DB00D5581A4C2C40D450D45827433B
:10CE6000D750B047B5E6032B00D02CE7032955D0A7
:10CE7000B04728E70329DAD1B946E0236246DB0050
:10CE8000D258904647460E4A3A406746FA50FA58FA
:10CE90004F4617436246D750B047EDE60061004069
:10CEA00004610040086100400C6100407C6100406A
:10CEB000DC280020006000401C0500001405000074
:10CEC000FFFFFCFF0329D3D1B946E0236246DB0014
:10CED000D25890464746154A3A406746FA50FA58A3
:10CEE0004F4617436246D750B047ECE60329A5D119
:10CEF000B946E0236246DB00D258904647460B4ACB
:10CF00003A406746FA50FA584F4617436246D750A0
:10CF1000B0478AE680239B029946AEE780239B02B6
:10CF20009946D2E780239B029946E2E7FFFFFCFF88
:10CF3000F0B557464E464546E0B4394C031CA27D39
:10CF40000820002A04D01CBC90469946A246F0BD99
:10CF5000002B62D0A02003251A68C005C132FF3221
:10CF6000920015500122AA461D68AA40A125ED0095
:10CF70004251A94600255A68AC46C132FF329200A0
:10CF800015509E69274A284D56511D7DA846464694
:10CF90005D7D3543254E95515D681E68A846244D3C
:10CFA00056514646234D56511D7D012D1AD19E687E
:10CFB000371CE0267600B0464744BE00674637502F
:10CFC000C137FF37B8465746DE684644B60037508B
:10CFD000DE68B5404E468551D8689D689051A220C4
:10CFE000C00015501A6961602260002908D0197FBD
:10CFF000C12311480B4A9B00D0500220FFF77AFD55
:10D00000A0230421074ADB00D15000230122E3744E
:10D01000A374A2756375002095E7084B9AE7C04694
:10D020002429002000200040240500006C05000099
:10D030000C0500001405000080000200CCEC01008B
:10D04000F0B5264A041C937C1120002B00D0F0BDC3
:10D050000125917422482349138294600B60056076
:10D060000B60138AE05C138A1F4C01339BB213825E
:10D070001E4BE0505068002801D00020E7E7002751
:10D08000261C1D1C0130FF30947C138A9C4203D85F
:10D0900012E0138A834202D00B68002BF9D0138A66
:10D0A0008342F2D00F60138A9468E45C138A0133E0
:10D0B0009BB213827451E7E78023118A5B00994287
:10D0C0000AD008490B68002BFCD001210020084B36
:10D0D000196000239374BAE70F20FAE7242900208F
:10D0E000082000401C210040002000401C050000DA
:10D0F0000C200040F0B54F464646C0B4394B041CE6
:10D10000DA7C1120002A03D00CBC90469946F0BD71
:10D110001A755A7DD974DC60002A0AD05A68002A30
:10D120000FD08121C123304A89009B00D1500020BB
:10D13000EAE72E490A602E490A6001212A4A116055
:10D14000ECE7294A294D9046A322D200914628486F
:10D15000284C296806684A1E91412268C9B2571EA8
:10D16000BA41D2B2002E0BD1002A2BD10029F0D027
:10D170000022204903200A601C490A60DA74C3E7D0
:10D180000029F5D1002A1FD147464E460260197D7D
:10D19000BE59B4466746DE687754197DDE7C01319E
:10D1A000C9B21975197D8E42D3D812490A600F4948
:10D1B0000A60DA745B7D002B0ED001220A4B00203E
:10D1C0001A60A1E70029D3D100220A490F200A6082
:10D1D00006490A60DA7497E70122074B00201A60BB
:10D1E00092E7C0462429002000200040242100406E
:10D1F000082100404421004004200040064A537D9D
:10D20000002B07D105490B6005490B600549013327
:10D210000B6053757047C04624290020242100402C
:10D220000821004000200040C12210B5514B92005F
:10D230009A5884B092054CD54F4A1168002948D0BD
:10D24000002111608121C2228900920099504B4B2C
:10D250005A7D002A02D10121494A11600222694601
:10D260000A7090214348C9004258425069460392CF
:10D27000DA7C68460A72DA68196801920022DA7468
:10D280005B6898473F4A1368002B10D03B4B188AC5
:10D29000997C814251D9002111601A8A9968895C70
:10D2A0001A8A013292B21A82374B324AD150374B26
:10D2B0001A68002A0BD000221A60304B5A7D002ACF
:10D2C00002D001212B4A1160DA7C002A44D104B03B
:10D2D00010BDC123274A9B00D3585B07D2D52C4BE6
:10D2E00019680029CED00021A3241960234BE40043
:10D2F000187DD96812590A541A7DD87C0132D2B2ED
:10D300001A751A7D9042BDD15A7D002A02D10120A2
:10D310001B4A10608124C2221648A4009200845047
:10D320006C461A7D01202272002220700191DA746D
:10D33000196868465B689847A4E7002010600029D8
:10D34000B5D06A46107011729A6898741968019283
:10D350005B6868469847AAE768461A7D0121027211
:10D36000DA680170019200221968DA745B689847E4
:10D37000ADE7C046002000402421004024290020C1
:10D38000042000401C2100401C05000044210040F6
:10D39000082100400F2210B5037813401C1C2132D5
:10D3A0001A433734092B00D8141CCC72037830226E
:10D3B0001B091C1C1A433734092B00D8141C0F22DC
:10D3C0008C72437813401C1C21321A433734092BCA
:10D3D00000D8141C4C72437830221B091C1C1A43C1
:10D3E0003734092B00D8141C0F220C728378134099
:10D3F0001C1C21321A433734092B00D8141CCC7161
:10D40000837830221B091C1C1A433734092B00D89F
:10D41000141C0F228C71C37813401C1C21321A4338
:10D420003734092B00D8141C4C71C37830221B09E7
:10D430001C1C1A433734092B00D8141C0F220C7102
:10D44000037913401C1C21321A433734092B00D8AE
:10D45000141CCC70037930221B091C1C1A4337346E
:10D46000092B00D8141C0F228C70437913401C1C0C
:10D4700021321A433734092B00D8141C4C704379DD
:10D4800030221B09181C1A433730092B00D8101CF6
:10D49000087010BD35DF7047F0B5474680B403789B
:10D4A000012B03D0002B09D0022B04D140680021AE
:10D4B0000022FEF7B7FE04BC9046F0BD7D4C7E4DC9
:10D4C00020782818FFF7E8FA7C4F3E78002E0BD022
:10D4D0002378EA5C2E2A26D00133DBB223700F2B8F
:10D4E000E9D900232370E6E721786B5C2E2B14D05A
:10D4F0002A2B05D00131C9B221700F29F1D8DAE702
:10D50000293B4F203B702670FFF7E0FA4B20FFF7D6
:10D51000DDFA2E20FFF7DAFACDE789B2281C00F0F9
:10D52000A3FB2670C7E7281C65492B3A01F085FB51
:10D53000002813D1EE1C301C6249052201F07DFB4E
:10D54000002814D100F024FB4F20FFF7BFFA4B2036
:10D55000FFF7BCFA2E20FFF7B9FAC2E7281C5A4998
:10D56000032201F06AFB002828D14F30EDE7301C80
:10D570005649052201F061FB002828D0301C54498F
:10D58000062201F05AFB002826D0301C5149052202
:10D5900001F053FB002825D10F23287A184000F012
:10D5A00021FB00282FD000234B4D4C4E3B70287898
:10D5B0000135FFF78BFAB542F9D192E7484DAE1D20
:10D5C00028780135FFF782FAB542F9D189E700F0F2
:10D5D000F1FA00F05BFB84E70F23687A184000F053
:10D5E0006DFB7EE7301C3F49072201F026FB002837
:10D5F00012D10F23A87A184000F0E0FA002824D0B6
:10D6000000233B70A0E7364D374E28780135FFF7F1
:10D610005DFAB542F9D164E7EB1C181C33490522C9
:10D62000984601F00AFB061E21D10F23287A1840E4
:10D6300000F0FAFA002811D0351C274E705D013534
:10D64000FFF744FA052DF9D14BE7051C244E705D18
:10D650000135FFF73BFA062DF9D142E7051C204EB4
:10D66000705D0135FFF732FA062DF9D139E74046F2
:10D670001F49042201F0E1FA0028C1D040461D49AB
:10D68000052201F0DAFA00280BD14F30FFF71EFA1D
:10D690004B20FFF71BFA2E20FFF718FAFFF7FAFED0
:10D6A0001FE700250E4E705D0135FFF70FFA062DBE
:10D6B000F9D116E74D2A00203C2A002060280020DE
:10D6C00008ED01000CED01004CED010014ED01002E
:10D6D0001CED010024ED0100F8EC0100FDEC01005F
:10D6E00000ED01002CED010006ED010034ED01001C
:10D6F0003CED010044ED010030B589B001A8021CE9
:10D700000C4B32CB32C20C4B04A90493012305937A
:10D710000A4B0B4A069380235B000793FD3BFFF700
:10D7200069F9002803D000210022FEF77BFD09B033
:10D7300030BDC046ECEC01004C2A00203C29002002
:10D7400099D4010038B500290AD0041C4D1EEDB251
:10D750000135451920780134FFF7B8F9AC42F9D109
:10D7600038BDC0460022014B1A7070474D2A002078
:10D7700075DF704776DF70477FDF704786DF704761
:10D7800087DF704788DF704760DF704764DF70476E
:10D7900038B50B780D1C032B22D0042B0BD0022B99
:10D7A00000D038BD01F0B6F80028FAD000210022E0
:10D7B000FEF738FDF5E70121124A13481378494274
:10D7C0005B0019521170FFF7CDFF8021A0220F4B93
:10D7D0008903D205D1500E480321FFF7B3FFE0E7DC
:10D7E0000B7A0024002B09D06B68185DFFF76EF9E7
:10D7F0000028F9D12B7A01349C42F5D32E20FFF773
:10D8000065F9CEE761280020502A00200C050000B1
:10D8100090ED0100F0B55F4656464D464446F0B4E3
:10D82000038889B0103B9BB2071C0D2B0DD8A04A72
:10D830009B00D3589F468088B91DFFF799FF0028A9
:10D8400003D000210022FEF7EDFC9A4C9A4D281CD3
:10D85000391C00F083FCBB88201C391C638001F05C
:10D860001BF809B03CBC90469946A246AB46F0BDB9
:10D87000831D191C06A80722019301F0D5F98F4BCF
:10D8800000249A4603E09C426BD20134E4B204AA1D
:10D8900094460923E500291B890009196344514472
:10D8A000181C0131062201F0C8F9854B1B780028AD
:10D8B000E9D19946A34255D9FF2C53D0391C019B7D
:10D8C0000F31187AC008C0D03B7CFE7B092B00D1F9
:10D8D000EBE0002305E0CA185278CE5C092A00D19B
:10D8E000D1E001369B198342F5D3AEE7754A137830
:10D8F000052BAAD8818874485B001952FF236D4C10
:10D9000013706180FFF72EFF8021A123A0228903DD
:10D91000DB00D205D1506D480321FFF713FF664DA0
:10D92000B988281C00F0E4FB002800D18FE7002113
:10D930000022FEF777FC8AE78088852100220023F9
:10D94000FFF71AFF002800D17FE77AE78379022BDF
:10D9500000D07AE75E480821FFF7F4FE554C564D9B
:10D9600075E799460F239C46019BBC441A7A614691
:10D97000D20800D169E7002398464B46029705AECE
:10D980000393894647460BE0191F012936D9063B08
:10D99000012B4ED943460133FF18974200D380E054
:10D9A0004B46DB5D98464B46DB195B78991E012997
:10D9B000EAD843465B089B46ECD03B1CBC1C4C445D
:10D9C0005F4600259B4603E001350234AF4210D983
:10D9D0000220211C321CFFF7D9FE0028F4D1338825
:10D9E000012BF1D1B378022B31D001350234AF4293
:10D9F000EED8019B5F461A7AD208CBE743469B08D4
:10DA0000C8D0BC1CBB464C4400251F1C03E001359C
:10DA10000434BD42EDD20220211C321CFFF7B6FEB9
:10DA20000028F4D13388012BF1D1B378022BEED149
:10DA30000DE0B91C49441020321CFFF7A7FE002856
:10DA40001DD13388012B1AD1B378022B17D1039B38
:10DA50001B4A9946013313704B46DC00E41A5346C7
:10DA6000A400029F4C44181906220130F91D01F050
:10DA7000F8F85246BB79104D13550E4CE7E6019B62
:10DA80001A7AD20886E702332D1BAD002C195444B4
:10DA9000E01DC918321C01F0E4F82677064D054C4C
:10DAA000D5E6029F034C044DD1E60223ECE7C046C5
:10DAB00050ED0100D02B0020A42A0020202B0020B4
:10DAC000CE2B002061280020502A002090ED01007C
:10DAD00094ED01008021A323A02200B58903DB007F
:10DAE000D205D15083B0082024494822002301F0F8
:10DAF00027F800283CD1082268460021FEF788FB61
:10DB0000002301936B4601221B78684693436A46C3
:10DB10001370FFF739FE002825D1194801F036F8B7
:10DB2000002803D000210022FEF77CFB00F0A6FABB
:10DB3000002813D1134B14486946009300F07CFE73
:10DB4000002803D000210022FEF76CFB01220F4BBE
:10DB500052421A605A609A6003B000BD0021002250
:10DB6000FEF760FBE6E700210022FEF75BFBD4E74F
:10DB700000210022FEF756FBBDE7C0465C2A0020CC
:10DB800015D8010091D70100D02B0020502A002089
:10DB900008B50648FFF7F2FD002803D00021002257
:10DBA000FEF740FB0022024B1A7008BDB4ED0100E5
:10DBB000CE2B002008B5FFF7E3FD08BD00220528A5
:10DBC00008D8054943005B5A04498B4202D0044AF5
:10DBD00053800122101C7047502A0020FFFF0000D4
:10DBE000D02B002008B50B4A031C127800209A4263
:10DBF0000ED9D800084AC01A80001370C31807480D
:10DC00000749C018074AFFF7BDFD43425841C0B25B
:10DC100008BDC046CE2B002061280020202B00200C
:10DC2000B4ED010088ED010010B5052802D90024EB
:10DC3000201C10BD094B13211870094B4000C05A1D
:10DC4000084B5880FFF796FD0828F0D001240028E3
:10DC5000EED000210022FEF7E5FAE9E76128002076
:10DC6000502A0020D02B002070B5061C0C1C142953
:10DC700000D91424044DA4B2281C311C221C00F02D
:10DC80006FFE0028F8D170BDD02B00204F2300B5C7
:10DC900083B001A80370043B43701E3B8370064BA6
:10DCA00004211A7830231343C370FFF74BFD2E2055
:10DCB000FEF70CFF03B000BDCE2B002010B50321F2
:10DCC00084B0041C1748FFF73DFD174B1B78A34297
:10DCD00019D9E000001B80000419144801A9041997
:10DCE000601CFFF757FB0C2101A8FFF72BFD2D202F
:10DCF000FEF7ECFE217F00290ED00139E01DC9B2EC
:10DD0000FFF720FD03E00A480521FFF71BFD2E2049
:10DD1000FEF7DCFE04B010BD06480721FFF712FD38
:10DD2000F5E7C046A0ED0100CE2B0020202B0020FF
:10DD3000ACED0100A4ED010048DF704708B5031CFD
:10DD40000A1C0248191CFEF76DFA08BDEFBEADDED5
:10DD500008B5002005210D4A0023FEF779FD0028B3
:10DD600003D000210022FEF75DFAFFF7C5FCFFF7A4
:10DD7000B1FE07480721FFF7E5FCFFF7DDFF0028AC
:10DD8000FBD000210022FEF74DFAF6E7E02B002041
:10DD9000C4ED010090DF704792DF704793DF70475A
:10DDA000F0B556464D465F4644467823F0B4374EAC
:10DDB000C35C356883B09C46002D0DD062463A2383
:10DDC0005343334AC3189C789778A7420BD0012D50
:10DDD00002D9977AA7420DD003B03CBC9046994631
:10DDE000A246AB46F0BD1788B8461F88B845EED1AD
:10DDF000002304E014891B889C42EDD10123DB0041
:10DE0000D21853689A46002BE6D0224B1C689846DD
:10DE1000012CE1D874230190C35A27019B461E4B65
:10DE2000584699464A463B199B00D2185080002913
:10DE300027D000214846195463463A314B43019993
:10DE40000432101CC9183A2200F0EEFE3F19BF0040
:10DE50003B1C52464B441A64434601341C60AC429E
:10DE6000BAD14846036C98473368012B05D9484618
:10DE700084234A464430D3589847002342461360CF
:10DE8000AAE7022249465A54E0E7C046482E00203D
:10DE9000342E0020302E0020A82D0020F0B54F4653
:10DEA000464678238C463A21C0B4C45C013B4C43BF
:10DEB000011988460979C25C894653009B189B006A
:10DEC0001B19C318511C83B00A33494539D0494640
:10DED0004D1E77214A452CD295421AD001321E8917
:10DEE00053009B189B001B19C7183F8A0136BE427E
:10DEF00019D001A97B1E0E804B80634600221A7048
:10DF00007423C05AFFF74AFF03B00CBC90469946F1
:10DF1000F0BD42461B89128993420FD001A90133FB
:10DF20000B804A80E9E7C3180A33D2B242549145C4
:10DF3000D2D80123624600201370E5E700236A1C53
:10DF4000F3E742461B8912899342E7D1F1E7C046C5
:10DF5000F8B556464D465F4644467A22F0B4434EE5
:10DF6000835C35680133DBB28354AB4208D30022B3
:10DF70007923C2543CBC90469946A246AB46F8BDB4
:10DF800000239A4652467733C2540133C15C994606
:10DF90000131C9B2C1543E3B1F1C9846344B4F431C
:10DFA0009B46C719C900041C59440422381C00F0C0
:10DFB0003BFE53463B7174230121E05A3A1CFFF7A4
:10DFC000E9FE0028D6D079235246E2544B46424619
:10DFD0005946E35C89785A43A3189A7891423DD018
:10DFE000012DC7D05946897A9142C3D15A461B8820
:10DFF00012899A42BED10123DB005B445B689C46D8
:10E00000002BB7D01B4F3B68012BB3D87422A25A08
:10E010009046194A44469146CA461A01D2189200BF
:10E02000924451464C80494601248C5452465146F4
:10E030005060624601330A643B609D429AD1484673
:10E04000036C98473368012B05D9484684234A4618
:10E050004430D358984700233B608BE759460F88DC
:10E0600019888F42BCD10023C6E7C046482E002045
:10E07000342E0020302E0020A82D00200023012166
:10E08000034A00201360034A1170034A136070476B
:10E09000482E0020442E0020302E0020F8B5002805
:10E0A00008D0002906D00F4B1A780823002A03D184
:10E0B000181CF8BD0E23FBE70B4E023B3568022D02
:10E0C000F6D0023B012DF3D80C1C084FEB00FF18D3
:10E0D000011C0422381C013500F0A6FD7C6035606F
:10E0E0000023E5E7442E0020482E0020342E002097
:10E0F00070B5041C0D1C002825D0144B08201B787B
:10E10000002B00D170BD124B1B68002BFAD0792672
:10E11000A35D0930002BF5D10E4A201C1360742238
:10E12000A1520632A354023AA3540B49743A00F0A8
:10E130007BFD281C0121221CFFF72CFE0028E1D1C9
:10E140000123A355DEE70E20DCE7C046442E002065
:10E15000482E0020302E0020342E0020F0B55F46DF
:10E1600056464D464446F0B483B0002800D17EE0C8
:10E17000002900D17BE0614B1B78002B77D00B8806
:10E18000103B9BB2232B72D85D4A9B00D3580D1CC9
:10E19000041C9F46CB88002B00D0AEE13A26783392
:10E1A000C35C0E315E4387190422381C00F03CFD2D
:10E1B000291CB81D1231042200F036FD7723E35CE0
:10E1C000002B00D0E1E1FB8801A90B803B894B804B
:10E1D0007423E05AFFF7E0FD002848D0002279239D
:10E1E000E254484E013B3268E15C002A3FD03E3B9E
:10E1F0004B43454FE3189978BD788D4200D193E2A7
:10E20000012A34D9BD7A8D4231D139891B8899428E
:10E210002DD10123DB00FF187B689946002B26D007
:10E220003A4B98461B68012B21D87421615A384C0F
:10E230008C4667461901C918890065186F80012747
:10E240006754494629644146013368600B609A422D
:10E250000DD1236C201C98473368012B04D9201C56
:10E2600084234430E358984700234246136003B0A8
:10E270003CBC90469946A246AB46F0BD7823C35CB1
:10E280009C467723C75CCB88002B14D18E89002E47
:10E2900011D020480B8A834200D164E10A1C00237C
:10E2A000163205E00632911F0988814200D15BE1F8
:10E2B0000133B342F6D3002398463A2566466B46AF
:10E2C00042466E431A71A619337901379F4200D135
:10E2D00042E17723201CE75401A9FFF7DFFD002866
:10E2E00000D003E26B461B79002BC0D0201C01211B
:10E2F000FFF756FD201CFFF72BFEB8E7442E002049
:10E30000CCED0100482E0020342E0020302E0020BD
:10E31000A82D0020022900007823C35C9846CB88F2
:10E32000002B00D00BE13A2743465F43C7193E79E3
:10E330000A7BB218042A00DD12E1D2B2131C3A7132
:10E340009E4255D23A2241465143894673009B1959
:10E350009B004B449A46A2445046291C303A0A304E
:10E360000E3100F061FC002253469A8293463A79BE
:10E37000731C9A4200D806E15A00D3189B004B4404
:10E380009A46A2445046291C0A220A30183100F04D
:10E390004BFC53465A469A823A79B31C934200D3B7
:10E3A000F1E05A00D3189B004B449A46A2445046D1
:10E3B000291C0A220A30223100F036FC53465A4604
:10E3C0009A823A79F31C934200D3DCE05A00D318C6
:10E3D0009B004B449946A1444846291C0A220A3016
:10E3E0002C3100F021FC5A464B469A823A79043689
:10E3F000013E73009B199E003A214346594373180E
:10E40000E31838895B8A984200D898E0042A00D142
:10E4100095E07723E254002A00D08DE1FB8801A922
:10E420000B803B894B807423E05AFFF7B5FC002832
:10E4300000D11CE700227923D04EE2543268013B20
:10E44000E15C002A00D112E73E3B4B43CC4FE3187E
:10E450009978BD788D4200D198E1012A00D806E76D
:10E46000BD7A8D4200D002E739891B88994200D0DD
:10E47000FDE60123DB00FF187B689A46002B00D1E4
:10E48000F5E6C04B98461B68012B00D9EFE67421D6
:10E49000615ABD4C894644214D468B4659438C46B2
:10E4A00061184D8001254860A946504665464F4693
:10E4B000086441464B4467550B60934200D0D6E652
:10E4C00000235D4632685F1C934200D3CCE62B1CD0
:10E4D0007B431A1F443BE018A35898473B1CF1E7C5
:10E4E0007C220021FDF794FE012274235242E25265
:10E4F000BDE674238A88C252B9E678239F4EC25C77
:10E500003568002D00D129E13E3B53439C4FC31891
:10E510009A78B978914200D1E1E0012D00D822E14A
:10E52000B97A914200D19CE07A22A35C0133DBB23C
:10E53000A354AB4234D300227923E25497E600255A
:10E540007723201CE55401A9FFF7A8FC002800D17F
:10E55000C8E67923E55444E601236A461371C5E60B
:10E5600004230422EBE600235900CB185B00E918D2
:10E570007B00DB199A0060463A234343C989D318CC
:10E58000E318998297E61E1C32E7013BDBB25A0082
:10E59000D3189B009B19E3185B8A01339BB213E6E7
:10E5A00000239B465A467733E2540133E15C9A4696
:10E5B0000131C9B2E1543E3B99464B439846C900EC
:10E5C000A04479180422404600F02EFB43465A46E8
:10E5D0001A7174230121E05A4246FFF7DBFB002841
:10E5E00000D144E679235A46E25453464A46E35C56
:10E5F000B9785A43A3189A78914200D1B5E0012D19
:10E6000000D134E6B97A914200D030E63A891B88CD
:10E610009A4200D02BE60123DB00FF187B689A4664
:10E62000002B00D123E6574B98461B68012B00D9DD
:10E630001DE67422A25A544C94461A01D218920034
:10E64000A118914662464F464A800122E255524641
:10E650000A644246013348601360AB4200D006E6CC
:10E66000F7E53A891B889A4200D05DE70123DB0079
:10E67000FB185B689B46002B00D155E7414B984641
:10E680001B68012B00D94FE77422A25A94463E4AD8
:10E6900060469146CA461A01D218920092445146E9
:10E6A0004880022084464846614681545246594675
:10E6B0001164424601331360AB4200D034E7036C6F
:10E6C00098473568012D06D94A4648468423443088
:10E6D000D3589847356800234246136024E73888AA
:10E6E0001988884200D018E70023C0E77923424602
:10E6F000224EE2543268013BE35C002A00D1B6E5C9
:10E700005D431F4F6519AB78B97899421FD0012A34
:10E7100000D8ACE5B97A994200D0A8E539892B88B0
:10E72000994200D0A3E574E53D88AC461D88AC4510
:10E7300000D065E500236DE5013AD2B253009A1886
:10E740009200511861184B8A01339BB267E63988F1
:10E750008C4629888C45DAD100235BE57A22835CDC
:10E7600001338354E7E60125DEE639888C461988B3
:10E770008C4500D043E700234EE7C046482E0020DA
:10E78000342E0020302E0020A82D00203D88AC46DD
:10E790001D88AC4500D060E600236BE697DF70472C
:10E7A00063DF7047F0B54F464646C0B4037885B086
:10E7B000002B02D18388012B04D005B00CBC9046FD
:10E7C0009946F0BD1B4F82793B681B789A42F4D181
:10E7D000027A002AF1D00223051C9946013B041C51
:10E7E000002698460E352B88022B06D0032B11D01D
:10E7F00001360C359642F6D3DFE738682B89038162
:10E80000C368002B13D06A464146117101A998478D
:10E81000227AEDE738682B8983806B89C380C368CF
:10E82000002B04D049466A46117101A99847227A03
:10E83000DEE7C0464C2E002030B587B0041C0D1C0E
:10E8400002A81249102200F0EFF90E20002C07D088
:10E85000002D05D002A8211CFFF7A2FF002801D03F
:10E8600007B030BD227801AB9A7001221A80084AA5
:10E87000084914600122524262802A68A0802081E7
:10E88000E260181CFFF70AFCEAE7C0465CEE0100F4
:10E890004C2E0020A5E7010010B584B0002808D058
:10E8A000002906D043881A4A93421DD08A889A428A
:10E8B00001D004B010BD0B88112B1ED0382BF8D11D
:10E8C0008388002BF5D08A899A42F2D1C268002A47
:10E8D000EFD0032401AB1C700C1C12340294098A83
:10E8E0001972191C9047E4E70A88112A02D0382AC5
:10E8F000DFD1E5E78A889A42DBD1C368002BD8D004
:10E90000042201A90A70053A42809847D1E7C0461F
:10E91000FFFF000010B5031C84B0002809D0428816
:10E920000E4908208A4202D0DB88002B03D104B0B4
:10E9300010BD0E20FBE769460024073808704C70B4
:10E9400001A94B800223CB806B4608704870101CD5
:10E950008C808B60FFF722FFE9E7C046FFFF0000D5
:10E9600030B5031C85B0002819D00720142A01D91E
:10E9700005B030BD5D880B4C0130A542F8D001AC2C
:10E9800006382070013860701B89281C63800023C2
:10E990000391211CA380E280FFF700FFE8E70E202F
:10E9A000E6E7C046FFFF00001F4B1B78012B00D09D
:10E9B00070471E4B1B681B07FAD1F0221C4B1B68CB
:10E9C000134018D11B4B1B6813421AD0174B1B68FE
:10E9D0001B07EDD1F022164B1B681340402BE7D1EB
:10E9E000144B1B681342E3D1C12380220121DB00B9
:10E9F000D205D150DCE7102B0FD10E4B1B68134210
:10EA0000E8D10D4A0D4B1A6080220D4B12021A609C
:10EA1000054B1B78012BD9D0CAE7302BDAD1054B37
:10EA20001B681342D6D1ECE7E00F00F0E40F00F0D2
:10EA3000E80F00F0EC0F00F0DFFF07C00405004016
:10EA4000186C00402EDF704751DF704710DF7047B1
:10EA500061DF704708B5081C111CFFF76FF908BD8E
:10EA6000F0B557464E464546E0B4314B314E1D6831
:10EA700099466B425D41304BB2461C6898466342F2
:10EA80005C412E4F82B0EDB2E4B2002D08D0002CD4
:10EA900027D002B01CBC90469946A246F0BD012486
:10EAA00001A8FFF7D1FF052831D000282AD0002186
:10EAB0000022FDF7B7FB002CF1D16A461D4B01A9DE
:10EAC0001B8893801D4B1C68201CFFF7C1FF052885
:10EAD000E5D0002810D000210022FDF7A3FB002480
:10EAE000D3E73C68338801A9201C0B80FFF7B0FFF7
:10EAF0000528CED00028EED14346201C1B6898473D
:10EB00000024C2E74B4601981B689847D3E7002CC6
:10EB1000BFD153466A461B8801A99380074B012544
:10EB20001C68201CFFF794FF0528D2D1B1E7C0462E
:10EB3000582E0020522E00205C2E0020542E002043
:10EB400038B5041C0720002901D08D0700D038BD3E
:10EB5000094801600949201C0A80094A09491360D3
:10EB6000FFF774FF0028F2D10122074B16301A700C
:10EB7000FFF768FFEBE7C046542E0020522E00201E
:10EB8000602E002055EA0100502E0020002803D0FE
:10EB9000024B1860002070470E20FCE75C2E00201E
:10EBA00008B50A4B1B68002B08D09847002800D1F5
:10EBB00008BD00210022FDF735FBF9E7044B1B7867
:10EBC000002BF5D0FFF74CFFF2E7C046602E002087
:10EBD000502E002003210A4802680A4302600948B7
:10EBE00002680A4302600849084A094B9B1A03DD80
:10EBF000043BC858D050FBDC064880470648004715
:10EC0000240500405405004074EE01000028002057
:10EC10006C280020A9E9010021C10100FEE7FEE700
:10EC2000FEE7FEE7FEE7FEE7002310B5934203D0C0
:10EC3000CC5CC4540133F9E710BD002330B59A42CF
:10EC40000DD0013AC45CCD5CAC4202D1934202D1FA
:10EC5000251C631B03E00133002CF3D1F8E7181CDB
:10EC600030BD031C30B5002A07D00C7801335D1E7F
:10EC7000013A2C700131002CF5D19A18934203D03F
:10EC8000002119700133F9E730BD0000F8B5C04626
:10EC9000F8BC08BC9E467047F8B5C046F8BC08BC36
:10ECA0009E46704743000000002800200900000035
:10ECB0000B0000000A000000080000000000000037
:10ECC0000000000000509D0003000000090000004B
:10ECD0000B0000000A000000080000000000000017
:10ECE0000000000000509D00030000000D0C0E0FFE
:10ECF0000000000000509D00574149542E000000C4
:10ED00004552524F522E000041542B005343414E66
:10ED10002B0000005343414E2D000000464F554E3E
:10ED2000443D0000434F4E4E3D00000053574954B0
:10ED300043483D0044524F503D0000004155544F60
:10ED400000000000524553455400000041543F006C
:10ED5000ECD801004AD801004AD8010038D9010096
:10ED60004AD801004AD801004AD801004AD8010017
:10ED70004AD801004CD901004AD8010070D80100DE
:10ED80004AD8010036D8010010003C000000900174
:10ED90004F4B2E0054494D454F55542E0000000056
:10EDA0004F4B2D00556E6B6E6F776E004552524F74
:10EDB000520000000100000000000000A000500010
:10EDC0000000000043454E5452414C00F2E4010063
:10EDD000E0E401006EE201006EE201006EE201007B
:10EDE0006EE201006EE201006EE201006EE20100DF
:10EDF0006EE201006EE201006EE201006EE20100CF
:10EE00006EE201006EE201006EE201006EE20100BE
:10EE10006EE201006EE201006EE201006EE20100AE
:10EE20006EE201006EE201006EE201006EE201009E
:10EE30006EE201006EE201006EE201006EE201008E
:10EE40006EE201006EE201006EE2010094E1010059
:10EE50006EE2010018E301007CE201009ECADC249E
:0CEE60000EE5A9E093F3A3B50000406E9E
:08EE6C00B4D2FF7F0100000099
:10EE7400000000000000000000000000000000008E
:10EE8400000000000000000000000000000000007E
:10EE9400A4EC0100000000000000000000000000DD
:10EEA400000000000000000000000000000000005E
:10EEB400000000000000000000000000000000004E
:10EEC400000000000000000000000000000000003E
:0CEED40001FF0000E9C00100C1C0010006
:040000031000EBD529
:00000001FF
